{
  "contractName": "OnlineJewelleryStore",
  "abi": [
    {
      "inputs": [],
      "stateMutability": "nonpayable",
      "type": "constructor"
    },
    {
      "anonymous": false,
      "inputs": [
        {
          "indexed": false,
          "internalType": "uint256",
          "name": "itemId",
          "type": "uint256"
        },
        {
          "indexed": false,
          "internalType": "string",
          "name": "name",
          "type": "string"
        },
        {
          "indexed": false,
          "internalType": "uint256",
          "name": "price",
          "type": "uint256"
        },
        {
          "indexed": false,
          "internalType": "address",
          "name": "owner",
          "type": "address"
        }
      ],
      "name": "ItemAdded",
      "type": "event"
    },
    {
      "anonymous": false,
      "inputs": [
        {
          "indexed": false,
          "internalType": "uint256",
          "name": "itemId",
          "type": "uint256"
        },
        {
          "indexed": false,
          "internalType": "address",
          "name": "buyer",
          "type": "address"
        }
      ],
      "name": "ItemPurchased",
      "type": "event"
    },
    {
      "inputs": [
        {
          "internalType": "uint256",
          "name": "",
          "type": "uint256"
        }
      ],
      "name": "catalogue",
      "outputs": [
        {
          "internalType": "uint256",
          "name": "itemId",
          "type": "uint256"
        },
        {
          "internalType": "string",
          "name": "name",
          "type": "string"
        },
        {
          "internalType": "uint256",
          "name": "price",
          "type": "uint256"
        },
        {
          "internalType": "address",
          "name": "owner",
          "type": "address"
        },
        {
          "internalType": "bool",
          "name": "sold",
          "type": "bool"
        }
      ],
      "stateMutability": "view",
      "type": "function",
      "constant": true
    },
    {
      "inputs": [],
      "name": "owner",
      "outputs": [
        {
          "internalType": "address",
          "name": "",
          "type": "address"
        }
      ],
      "stateMutability": "view",
      "type": "function",
      "constant": true
    },
    {
      "inputs": [
        {
          "internalType": "uint256",
          "name": "",
          "type": "uint256"
        }
      ],
      "name": "ownership",
      "outputs": [
        {
          "internalType": "address",
          "name": "",
          "type": "address"
        }
      ],
      "stateMutability": "view",
      "type": "function",
      "constant": true
    },
    {
      "inputs": [
        {
          "internalType": "uint256",
          "name": "itemId",
          "type": "uint256"
        },
        {
          "internalType": "string",
          "name": "name",
          "type": "string"
        },
        {
          "internalType": "uint256",
          "name": "price",
          "type": "uint256"
        }
      ],
      "name": "addItem",
      "outputs": [],
      "stateMutability": "nonpayable",
      "type": "function"
    },
    {
      "inputs": [
        {
          "internalType": "uint256",
          "name": "itemId",
          "type": "uint256"
        }
      ],
      "name": "purchaseItem",
      "outputs": [],
      "stateMutability": "payable",
      "type": "function",
      "payable": true
    },
    {
      "inputs": [
        {
          "internalType": "uint256",
          "name": "itemId",
          "type": "uint256"
        }
      ],
      "name": "getItemDetails",
      "outputs": [
        {
          "internalType": "uint256",
          "name": "",
          "type": "uint256"
        },
        {
          "internalType": "string",
          "name": "",
          "type": "string"
        },
        {
          "internalType": "uint256",
          "name": "",
          "type": "uint256"
        },
        {
          "internalType": "address",
          "name": "",
          "type": "address"
        },
        {
          "internalType": "bool",
          "name": "",
          "type": "bool"
        }
      ],
      "stateMutability": "view",
      "type": "function",
      "constant": true
    }
  ],
  "bytecode": "0x608060405234801561001057600080fd5b50336000806101000a81548173ffffffffffffffffffffffffffffffffffffffff021916908373ffffffffffffffffffffffffffffffffffffffff160217905550610fda806100606000396000f3fe6080604052600436106100555760003560e01c80631e0d95601461005a57806373004ca01461009b5780638da5cb5b146100dc578063a0f45b6914610107578063b776fc1514610144578063d38ea5bf1461016d575b600080fd5b34801561006657600080fd5b50610081600480360381019061007c9190610942565b610189565b604051610092959493929190610a73565b60405180910390f35b3480156100a757600080fd5b506100c260048036038101906100bd9190610942565b610274565b6040516100d3959493929190610a73565b60405180910390f35b3480156100e857600080fd5b506100f16103bb565b6040516100fe9190610acd565b60405180910390f35b34801561011357600080fd5b5061012e60048036038101906101299190610942565b6103df565b60405161013b9190610acd565b60405180910390f35b34801561015057600080fd5b5061016b60048036038101906101669190610c1d565b610412565b005b61018760048036038101906101829190610942565b61062b565b005b60016020528060005260406000206000915090508060000154908060010180546101b290610cbb565b80601f01602080910402602001604051908101604052809291908181526020018280546101de90610cbb565b801561022b5780601f106102005761010080835404028352916020019161022b565b820191906000526020600020905b81548152906001019060200180831161020e57829003601f168201915b5050505050908060020154908060030160009054906101000a900473ffffffffffffffffffffffffffffffffffffffff16908060030160149054906101000a900460ff16905085565b6000606060008060006001600087815260200190815260200160002060000154600160008881526020019081526020016000206001016001600089815260200190815260200160002060020154600160008a815260200190815260200160002060030160009054906101000a900473ffffffffffffffffffffffffffffffffffffffff16600160008b815260200190815260200160002060030160149054906101000a900460ff1683805461032890610cbb565b80601f016020809104026020016040519081016040528092919081815260200182805461035490610cbb565b80156103a15780601f10610376576101008083540402835291602001916103a1565b820191906000526020600020905b81548152906001019060200180831161038457829003601f168201915b505050505093509450945094509450945091939590929450565b60008054906101000a900473ffffffffffffffffffffffffffffffffffffffff1681565b60026020528060005260406000206000915054906101000a900473ffffffffffffffffffffffffffffffffffffffff1681565b60008054906101000a900473ffffffffffffffffffffffffffffffffffffffff1673ffffffffffffffffffffffffffffffffffffffff163373ffffffffffffffffffffffffffffffffffffffff16146104a0576040517f08c379a000000000000000000000000000000000000000000000000000000000815260040161049790610d5f565b60405180910390fd5b60006001600085815260200190815260200160002060000154146104f9576040517f08c379a00000000000000000000000000000000000000000000000000000000081526004016104f090610dcb565b60405180910390fd5b6040518060a00160405280848152602001838152602001828152602001600073ffffffffffffffffffffffffffffffffffffffff1681526020016000151581525060016000858152602001908152602001600020600082015181600001556020820151816001019080519060200190610573929190610855565b506040820151816002015560608201518160030160006101000a81548173ffffffffffffffffffffffffffffffffffffffff021916908373ffffffffffffffffffffffffffffffffffffffff16021790555060808201518160030160146101000a81548160ff0219169083151502179055509050507f4cb34837c7f53a61f23e94bec431249774053a2ab0b596d1382fb3dde16f65cd838383600060405161061e9493929190610deb565b60405180910390a1505050565b80600060016000838152602001908152602001600020600001541415610686576040517f08c379a000000000000000000000000000000000000000000000000000000000815260040161067d90610e83565b60405180910390fd5b6001600082815260200190815260200160002060030160149054906101000a900460ff16156106ea576040517f08c379a00000000000000000000000000000000000000000000000000000000081526004016106e190610eef565b60405180910390fd5b6001600083815260200190815260200160002060020154341015610743576040517f08c379a000000000000000000000000000000000000000000000000000000000815260040161073a90610f5b565b60405180910390fd5b600180600084815260200190815260200160002060030160146101000a81548160ff021916908315150217905550336002600084815260200190815260200160002060006101000a81548173ffffffffffffffffffffffffffffffffffffffff021916908373ffffffffffffffffffffffffffffffffffffffff160217905550336001600084815260200190815260200160002060030160006101000a81548173ffffffffffffffffffffffffffffffffffffffff021916908373ffffffffffffffffffffffffffffffffffffffff1602179055507f7ce670ea54227685ed72f8669179c51b47ba2251ce7cfac367725a7b8f9b743d8233604051610849929190610f7b565b60405180910390a15050565b82805461086190610cbb565b90600052602060002090601f01602090048101928261088357600085556108ca565b82601f1061089c57805160ff19168380011785556108ca565b828001600101855582156108ca579182015b828111156108c95782518255916020019190600101906108ae565b5b5090506108d791906108db565b5090565b5b808211156108f45760008160009055506001016108dc565b5090565b6000604051905090565b600080fd5b600080fd5b6000819050919050565b61091f8161090c565b811461092a57600080fd5b50565b60008135905061093c81610916565b92915050565b60006020828403121561095857610957610902565b5b60006109668482850161092d565b91505092915050565b6109788161090c565b82525050565b600081519050919050565b600082825260208201905092915050565b60005b838110156109b857808201518184015260208101905061099d565b838111156109c7576000848401525b50505050565b6000601f19601f8301169050919050565b60006109e98261097e565b6109f38185610989565b9350610a0381856020860161099a565b610a0c816109cd565b840191505092915050565b600073ffffffffffffffffffffffffffffffffffffffff82169050919050565b6000610a4282610a17565b9050919050565b610a5281610a37565b82525050565b60008115159050919050565b610a6d81610a58565b82525050565b600060a082019050610a88600083018861096f565b8181036020830152610a9a81876109de565b9050610aa9604083018661096f565b610ab66060830185610a49565b610ac36080830184610a64565b9695505050505050565b6000602082019050610ae26000830184610a49565b92915050565b600080fd5b600080fd5b7f4e487b7100000000000000000000000000000000000000000000000000000000600052604160045260246000fd5b610b2a826109cd565b810181811067ffffffffffffffff82111715610b4957610b48610af2565b5b80604052505050565b6000610b5c6108f8565b9050610b688282610b21565b919050565b600067ffffffffffffffff821115610b8857610b87610af2565b5b610b91826109cd565b9050602081019050919050565b82818337600083830152505050565b6000610bc0610bbb84610b6d565b610b52565b905082815260208101848484011115610bdc57610bdb610aed565b5b610be7848285610b9e565b509392505050565b600082601f830112610c0457610c03610ae8565b5b8135610c14848260208601610bad565b91505092915050565b600080600060608486031215610c3657610c35610902565b5b6000610c448682870161092d565b935050602084013567ffffffffffffffff811115610c6557610c64610907565b5b610c7186828701610bef565b9250506040610c828682870161092d565b9150509250925092565b7f4e487b7100000000000000000000000000000000000000000000000000000000600052602260045260246000fd5b60006002820490506001821680610cd357607f821691505b60208210811415610ce757610ce6610c8c565b5b50919050565b7f4f6e6c7920746865206f776e65722063616e20706572666f726d20746869732060008201527f616374696f6e0000000000000000000000000000000000000000000000000000602082015250565b6000610d49602683610989565b9150610d5482610ced565b604082019050919050565b60006020820190508181036000830152610d7881610d3c565b9050919050565b7f4974656d2077697468207468697320494420616c726561647920657869737473600082015250565b6000610db5602083610989565b9150610dc082610d7f565b602082019050919050565b60006020820190508181036000830152610de481610da8565b9050919050565b6000608082019050610e00600083018761096f565b8181036020830152610e1281866109de565b9050610e21604083018561096f565b610e2e6060830184610a49565b95945050505050565b7f4974656d20646f6573206e6f7420657869737400000000000000000000000000600082015250565b6000610e6d601383610989565b9150610e7882610e37565b602082019050919050565b60006020820190508181036000830152610e9c81610e60565b9050919050565b7f4974656d20697320616c726561647920736f6c64000000000000000000000000600082015250565b6000610ed9601483610989565b9150610ee482610ea3565b602082019050919050565b60006020820190508181036000830152610f0881610ecc565b9050919050565b7f496e73756666696369656e742066756e64730000000000000000000000000000600082015250565b6000610f45601283610989565b9150610f5082610f0f565b602082019050919050565b60006020820190508181036000830152610f7481610f38565b9050919050565b6000604082019050610f90600083018561096f565b610f9d6020830184610a49565b939250505056fea26469706673582212203ce9dad2041d56fd5113f20df611c922618d1b773ffb4ce42a074513729177f464736f6c634300080b0033",
  "immutableReferences": {},
  "source": "// SPDX-License-Identifier: MIT\r\npragma solidity ^0.8.0;\r\n\r\ncontract OnlineJewelleryStore {\r\n    address public owner;\r\n    \r\n    // Struct to represent a jewellery item\r\n    struct JewelleryItem {\r\n        uint itemId;\r\n        string name;\r\n        uint price;\r\n        address owner;\r\n        bool sold;\r\n    }\r\n\r\n    // Mapping to store catalogue of jewellery items\r\n    mapping(uint => JewelleryItem) public catalogue;\r\n\r\n    // Mapping to track ownership of each jewellery item\r\n    mapping(uint => address) public ownership;\r\n\r\n    // Event emitted when a new item is added to the catalogue\r\n    event ItemAdded(uint itemId, string name, uint price, address owner);\r\n\r\n    // Event emitted when an item is purchased\r\n    event ItemPurchased(uint itemId, address buyer);\r\n\r\n    // Modifier to ensure that only the owner can perform certain actions\r\n    modifier onlyOwner() {\r\n        require(msg.sender == owner, \"Only the owner can perform this action\");\r\n        _;\r\n    }\r\n\r\n    // Modifier to ensure that an item is available for purchase\r\n    modifier itemAvailable(uint itemId) {\r\n        require(catalogue[itemId].itemId != 0, \"Item does not exist\");\r\n        require(!catalogue[itemId].sold, \"Item is already sold\");\r\n        _;\r\n    }\r\n\r\n    // Constructor to set the owner of the contract\r\n    constructor() {\r\n        owner = msg.sender;\r\n    }\r\n\r\n    // Function to add a new item to the catalogue\r\n    function addItem(uint itemId, string memory name, uint price) external onlyOwner {\r\n        require(catalogue[itemId].itemId == 0, \"Item with this ID already exists\");\r\n\r\n        catalogue[itemId] = JewelleryItem({\r\n            itemId: itemId,\r\n            name: name,\r\n            price: price,\r\n            owner: address(0),\r\n            sold: false\r\n        });\r\n\r\n        emit ItemAdded(itemId, name, price, address(0));\r\n    }\r\n\r\n    // Function to purchase a jewellery item\r\n    function purchaseItem(uint itemId) external payable itemAvailable(itemId) {\r\n        require(msg.value >= catalogue[itemId].price, \"Insufficient funds\");\r\n\r\n        // Mark the item as sold\r\n        catalogue[itemId].sold = true;\r\n\r\n        // Transfer ownership and funds\r\n        ownership[itemId] = msg.sender;\r\n        catalogue[itemId].owner = msg.sender;\r\n\r\n        // Emit the purchase event\r\n        emit ItemPurchased(itemId, msg.sender);\r\n    }\r\n\r\n    // Function to get the details of a jewellery item\r\n    function getItemDetails(uint itemId) external view returns (uint, string memory, uint, address, bool) {\r\n        return (\r\n            catalogue[itemId].itemId,\r\n            catalogue[itemId].name,\r\n            catalogue[itemId].price,\r\n            catalogue[itemId].owner,\r\n            catalogue[itemId].sold\r\n        );\r\n    }\r\n}\r\n",
  "sourcePath": "D:\\Web3_edu\\jewelleryproject\\jewelleryproject\\contracts\\OnlineJewelleryStore.sol",
  "compiler": {
    "name": "solc",
    "version": "0.8.11+commit.d7f03943.Emscripten.clang"
  },
  "schemaVersion": "3.4.16",
  "updatedAt": "2023-11-20T07:06:06.334Z",
  "networkType": "ethereum",
  "devdoc": {
    "kind": "dev",
    "methods": {},
    "version": 1
  },
  "userdoc": {
    "kind": "user",
    "methods": {},
    "version": 1
  }
}